:0400000080311B2808
:10000800803120007F08F000911C0B280C280D2857
:100018009110931C1028112812289310931D15284D
:1000280016281828931118287008FF00090088015D
:100038008131C829F4012130F3007630F200F20B47
:100048002328F30B232864008131A6218031213035
:10005800F3007630F200F20B2F28F30B2F28640000
:1000680081316C2180312130F3007630F200F20BBF
:100078003B28F30B3B2864008131BD2180312600E9
:10008800910198019C014828F401FA307402031C7C
:100098004E284F285128692869287408260091009D
:1000A80098019C010430F3003D30F200F20B5A280D
:1000B800F30B5A285F280130F2007208F407FA306F
:1000C8007402031C682869285128F401FA30740264
:1000D800031C6F28702872288D288D287403FF3A16
:1000E800FA3E26009100740898009C010430F30041
:1000F8003D30F200F20B7E28F30B7E288328013076
:10010800F2007208F407FA307402031C8C288D2858
:100118007228F401FA307402031C93289428962854
:10012800B128B128260091017403FF3AFA3E9800DD
:1001380074089C000430F3003D30F200F20BA22852
:10014800F30BA228A7280130F2007208F407FA304E
:100158007402031CB028B1289628F401FA307402FE
:10016800031CB728B828BA28D628D6287408260029
:100178009100740898007403FF3AFA3E9C0004301A
:10018800F3003D30F200F20BC728F30BC728CC2848
:100198000130F2007208F407FA307402031CD52803
:1001A800D628BA28F401FA307402031CDC28DD28AA
:1001B800DF28FB28FB287403FF3AFA3E260091004B
:1001C800FA30980074089C000430F3003D30F200C7
:1001D800F20BEC28F30BEC28F1280130F20072083E
:1001E800F407FA307402031CFA28FB28DF28F4010C
:1001F800FA307402031C0129022904292029202924
:100208007408260091007403FF3AFA3E9800FA3009
:100218009C000430F3003D30F200F20B1129F30B7F
:10022800112916290130F2007208F407FA30740215
:10023800031C1F2920290429F401FA307402031C25
:1002480026292729292944294429FA3026009100FA
:1002580098017403FF3AFA3E9C000430F3003D30E5
:10026800F200F20B3529F30B35293A290130F20057
:100278007208F407FA307402031C43294429292917
:10028800F401FA307402031C4A294B294D294828E5
:1002980048287403FF3AFA3E2600910098019C0111
:1002A8000430F3003D30F200F20B5829F30B5829C3
:1002B8005D290130F2007208F407FA307402031C59
:1002C800662967294D2948284828482880311B284D
:1002D80021000C168D160D1426009A151A159A1061
:1002E8001A109E151E159E101E10931313139315A6
:1002F80013159310131025009E121E129E131E171D
:100308009F141F10FA3020009B009C019A01911045
:100318002100911420001C15FA302800960097013E
:100328009501200093102100931428001715FA3026
:100338009D009E019C012000931121009315280027
:100348001E15080022001D1721001D1023008C0116
:100358008D012F00911321001917991219161916DA
:10036800991419148C018D018E0120008C018D01C6
:1003780008008B170B175330F100F10BC12921002E
:0E0388000C128D120D100800200080311E286E
:020000040001F9
:04000E00E4C9FFDC66
:00000001FF
